{"abi":[{"type":"constructor","inputs":[{"name":"adjustor_","type":"address","internalType":"address"}],"stateMutability":"nonpayable"},{"type":"function","name":"adjustor","inputs":[],"outputs":[{"name":"","type":"address","internalType":"address"}],"stateMutability":"view"},{"type":"function","name":"allDelegates","inputs":[],"outputs":[{"name":"","type":"address[]","internalType":"address[]"}],"stateMutability":"view"},{"type":"function","name":"clearDelegates","inputs":[],"outputs":[],"stateMutability":"nonpayable"},{"type":"function","name":"delegateSet","inputs":[{"name":"","type":"address","internalType":"address"}],"outputs":[{"name":"","type":"bool","internalType":"bool"}],"stateMutability":"view"},{"type":"function","name":"delegates","inputs":[{"name":"","type":"uint256","internalType":"uint256"}],"outputs":[{"name":"","type":"address","internalType":"address"}],"stateMutability":"view"},{"type":"function","name":"isDelegate","inputs":[{"name":"who_","type":"address","internalType":"address"}],"outputs":[{"name":"","type":"bool","internalType":"bool"}],"stateMutability":"view"},{"type":"function","name":"setAdjustor","inputs":[{"name":"newAdjustor_","type":"address","internalType":"address"}],"outputs":[],"stateMutability":"nonpayable"},{"type":"function","name":"setDelegates","inputs":[{"name":"newDelegates_","type":"address[]","internalType":"address[]"}],"outputs":[],"stateMutability":"nonpayable"},{"type":"function","name":"size","inputs":[],"outputs":[{"name":"","type":"uint256","internalType":"uint256"}],"stateMutability":"view"},{"type":"event","name":"AdjustorChanged","inputs":[{"name":"oldAdjustor","type":"address","indexed":false,"internalType":"address"},{"name":"newAdjustor","type":"address","indexed":false,"internalType":"address"}],"anonymous":false},{"type":"event","name":"DelegateSetChanged","inputs":[],"anonymous":false},{"type":"error","name":"InvalidAdjustor","inputs":[]},{"type":"error","name":"Unauthorized","inputs":[]}],"bytecode":{"object":"0x6080604052348015600f57600080fd5b506040516107b43803806107b4833981016040819052602c916050565b600080546001600160a01b0319166001600160a01b0392909216919091179055607e565b600060208284031215606157600080fd5b81516001600160a01b0381168114607757600080fd5b9392505050565b6107278061008d6000396000f3fe608060405234801561001057600080fd5b50600436106100935760003560e01c80633d5f60bd116100665780633d5f60bd1461013c5780634183bc2714610151578063949d225d14610164578063b1548afc14610175578063dd73e90f1461018857600080fd5b806303966fec1461009857806307779627146100ad5780631c8830a3146100ee57806325fcf65514610119575b600080fd5b6100ab6100a636600461056e565b610190565b005b6100d96100bb36600461056e565b6001600160a01b031660009081526002602052604090205460ff1690565b60405190151581526020015b60405180910390f35b600054610101906001600160a01b031681565b6040516001600160a01b0390911681526020016100e5565b6100d961012736600461056e565b60026020526000908152604090205460ff1681565b610144610242565b6040516100e59190610590565b6100ab61015f3660046105f2565b6102a4565b6001546040519081526020016100e5565b6101016101833660046106c2565b61045d565b6100ab610487565b6000546001600160a01b031633146101ba576040516282b42960e81b815260040160405180910390fd5b6001600160a01b0381166101e157604051636b46b65d60e11b815260040160405180910390fd5b600080546001600160a01b038381166001600160a01b031983168117909355604080519190921680825260208201939093527fed7787939e3e13ca883690a3675d336d4cb5d867d75266513c4f8435d3f1aa6e910160405180910390a15050565b6060600180548060200260200160405190810160405280929190818152602001828054801561029a57602002820191906000526020600020905b81546001600160a01b0316815260019091019060200180831161027c575b5050505050905090565b6000546001600160a01b031633146102ce576040516282b42960e81b815260040160405180910390fd5b60005b6001548110156103265760026000600183815481106102f2576102f26106db565b60009182526020808320909101546001600160a01b031683528201929092526040019020805460ff191690556001016102d1565b5061033360016000610518565b60005b81518110156104305760026000838381518110610355576103556106db565b6020908102919091018101516001600160a01b031682528101919091526040016000205460ff16610428576001828281518110610394576103946106db565b60209081029190910181015182546001808201855560009485529284200180546001600160a01b0319166001600160a01b03909216919091179055835190916002918590859081106103e8576103e86106db565b60200260200101516001600160a01b03166001600160a01b0316815260200190815260200160002060006101000a81548160ff0219169083151502179055505b600101610336565b506040517fa6c48c2d267a4487cece0530d6705d024bde084873579e538518b5335397414e90600090a150565b6001818154811061046d57600080fd5b6000918252602090912001546001600160a01b0316905081565b6000546001600160a01b031633146104b1576040516282b42960e81b815260040160405180910390fd5b60005b6001548110156105095760026000600183815481106104d5576104d56106db565b60009182526020808320909101546001600160a01b031683528201929092526040019020805460ff191690556001016104b4565b5061051660016000610518565b565b50805460008255906000526020600020908101906105369190610539565b50565b5b8082111561054e576000815560010161053a565b5090565b80356001600160a01b038116811461056957600080fd5b919050565b60006020828403121561058057600080fd5b61058982610552565b9392505050565b602080825282518282018190526000918401906040840190835b818110156105d15783516001600160a01b03168352602093840193909201916001016105aa565b509095945050505050565b634e487b7160e01b600052604160045260246000fd5b60006020828403121561060457600080fd5b813567ffffffffffffffff81111561061b57600080fd5b8201601f8101841361062c57600080fd5b803567ffffffffffffffff811115610646576106466105dc565b8060051b604051601f19603f830116810181811067ffffffffffffffff82111715610673576106736105dc565b60405291825260208184018101929081018784111561069157600080fd5b6020850194505b838510156106b7576106a985610552565b815260209485019401610698565b509695505050505050565b6000602082840312156106d457600080fd5b5035919050565b634e487b7160e01b600052603260045260246000fdfea2646970667358221220478334b7e6ef5f83c87813067241915a0da74e826d077a6670129d9ad43fe5fe64736f6c634300081a0033","linkReferences":{}},"methodIdentifiers":{"adjustor()":"1c8830a3","allDelegates()":"3d5f60bd","clearDelegates()":"dd73e90f","delegateSet(address)":"25fcf655","delegates(uint256)":"b1548afc","isDelegate(address)":"07779627","setAdjustor(address)":"03966fec","setDelegates(address[])":"4183bc27","size()":"949d225d"},"id":51}