{"abi":[{"type":"constructor","inputs":[{"name":"token_","type":"address","internalType":"address"},{"name":"manager_","type":"address","internalType":"address"},{"name":"stakingContract_","type":"address","internalType":"address"},{"name":"penaltyManager_","type":"address","internalType":"address"},{"name":"recipient_","type":"address","internalType":"address"},{"name":"grantAmount_","type":"uint256","internalType":"uint256"},{"name":"startTime_","type":"uint256","internalType":"uint256"},{"name":"endTime_","type":"uint256","internalType":"uint256"}],"stateMutability":"nonpayable"},{"type":"function","name":"availableEarlyTokens","inputs":[],"outputs":[{"name":"","type":"uint256","internalType":"uint256"}],"stateMutability":"view"},{"type":"function","name":"availableTokens","inputs":[],"outputs":[{"name":"","type":"uint256","internalType":"uint256"}],"stateMutability":"view"},{"type":"function","name":"claw","inputs":[{"name":"target_","type":"address","internalType":"address"}],"outputs":[],"stateMutability":"nonpayable"},{"type":"function","name":"earlyExitPenalty","inputs":[{"name":"amount_","type":"uint256","internalType":"uint256"}],"outputs":[{"name":"","type":"uint256","internalType":"uint256"}],"stateMutability":"view"},{"type":"function","name":"earlyReleaseTokens","inputs":[],"outputs":[],"stateMutability":"nonpayable"},{"type":"function","name":"elapsedTime","inputs":[],"outputs":[{"name":"","type":"uint256","internalType":"uint256"}],"stateMutability":"view"},{"type":"function","name":"endTime","inputs":[],"outputs":[{"name":"","type":"uint256","internalType":"uint256"}],"stateMutability":"view"},{"type":"function","name":"grantAmount","inputs":[],"outputs":[{"name":"","type":"uint256","internalType":"uint256"}],"stateMutability":"view"},{"type":"function","name":"isGrantFullyUnlocked","inputs":[],"outputs":[{"name":"","type":"bool","internalType":"bool"}],"stateMutability":"view"},{"type":"function","name":"lockupTime","inputs":[],"outputs":[{"name":"","type":"uint256","internalType":"uint256"}],"stateMutability":"view"},{"type":"function","name":"manager","inputs":[],"outputs":[{"name":"","type":"address","internalType":"address"}],"stateMutability":"view"},{"type":"function","name":"recipient","inputs":[],"outputs":[{"name":"","type":"address","internalType":"address"}],"stateMutability":"view"},{"type":"function","name":"releaseTokens","inputs":[{"name":"requestedAmount","type":"uint256","internalType":"uint256"}],"outputs":[],"stateMutability":"nonpayable"},{"type":"function","name":"releasedTokens","inputs":[],"outputs":[{"name":"","type":"uint256","internalType":"uint256"}],"stateMutability":"view"},{"type":"function","name":"stakingContract","inputs":[],"outputs":[{"name":"","type":"address","internalType":"address"}],"stateMutability":"view"},{"type":"function","name":"startTime","inputs":[],"outputs":[{"name":"","type":"uint256","internalType":"uint256"}],"stateMutability":"view"},{"type":"function","name":"token","inputs":[],"outputs":[{"name":"","type":"address","internalType":"address"}],"stateMutability":"view"},{"type":"function","name":"unlockedTokens","inputs":[],"outputs":[{"name":"","type":"uint256","internalType":"uint256"}],"stateMutability":"view"},{"type":"event","name":"EarlyTokenRelease","inputs":[{"name":"recipient","type":"address","indexed":true,"internalType":"address"},{"name":"grantContract","type":"address","indexed":true,"internalType":"address"},{"name":"amount","type":"uint256","indexed":false,"internalType":"uint256"},{"name":"penalty","type":"uint256","indexed":false,"internalType":"uint256"}],"anonymous":false},{"type":"event","name":"TokensClawedBack","inputs":[{"name":"target","type":"address","indexed":true,"internalType":"address"},{"name":"amount","type":"uint256","indexed":false,"internalType":"uint256"}],"anonymous":false},{"type":"event","name":"TokensSentToRecipient","inputs":[{"name":"recipient","type":"address","indexed":true,"internalType":"address"},{"name":"grantContract","type":"address","indexed":true,"internalType":"address"},{"name":"amountSent","type":"uint256","indexed":false,"internalType":"uint256"},{"name":"aggregateSent","type":"uint256","indexed":false,"internalType":"uint256"}],"anonymous":false},{"type":"error","name":"Unauthorized","inputs":[]}],"bytecode":{"object":"0x6101a060405234801561001157600080fd5b506040516112d03803806112d0833981016040819052610030916100a9565b6001600160a01b03851660805261010083905260a082905260c08190528483838361005b828261012b565b60e0525050506001600160a01b0397881661012052505050509383166101405250918116610160521661018052610152565b80516001600160a01b03811681146100a457600080fd5b919050565b600080600080600080600080610100898b0312156100c657600080fd5b6100cf8961008d565b97506100dd60208a0161008d565b96506100eb60408a0161008d565b95506100f960608a0161008d565b945061010760808a0161008d565b60a08a015160c08b015160e0909b0151999c989b5096999598909790945092505050565b8181038181111561014c57634e487b7160e01b600052601160045260246000fd5b92915050565b60805160a05160c05160e051610100516101205161014051610160516101805161104361028d600039600081816102d20152610ad201526000818161023501528181610326015281816103eb0152818161049e0152818161096601528181610b8b0152610c3a0152600081816102f90152818161041a01528181610575015281816106950152818161073101528181610b0401528181610bba0152610cb60152600081816101b2015261064001526000818161020e015281816109cb01528181610a9901528181610d770152610ed501526000818161012001528181610e880152610eb001526000818161015a0152818161018b015281816105e40152610d25015260008181610277015281816104f9015281816105290152610e4e01526000818161085d01528181610a130152610dbf01526110436000f3fe608060405234801561001057600080fd5b50600436106101165760003560e01c80637102ba62116100a2578063a289c11e11610071578063a289c11e146102b4578063abc88bda146102bc578063bef39963146102c4578063ee99205c146102cd578063fc0c546a146102f457600080fd5b80637102ba621461025f57806378e979251461027257806379c066c8146102995780639c2dc6fb146102ac57600080fd5b80634b0babdd116100e95780634b0babdd146101ec57806351453f9d1461020157806352fdb2bb1461020957806366d003ac1461023057806369bb4dc21461025757600080fd5b80630d05d69d1461011b578063244e490f146101555780633197cbb614610186578063481c6a75146101ad575b600080fd5b6101427f000000000000000000000000000000000000000000000000000000000000000081565b6040519081526020015b60405180910390f35b6040517f0000000000000000000000000000000000000000000000000000000000000000421015815260200161014c565b6101427f000000000000000000000000000000000000000000000000000000000000000081565b6101d47f000000000000000000000000000000000000000000000000000000000000000081565b6040516001600160a01b03909116815260200161014c565b6101ff6101fa366004610f1b565b61031b565b005b6101426104f5565b6101427f000000000000000000000000000000000000000000000000000000000000000081565b6101d47f000000000000000000000000000000000000000000000000000000000000000081565b610142610553565b6101ff61026d366004610f34565b610635565b6101427f000000000000000000000000000000000000000000000000000000000000000081565b6101426102a7366004610f1b565b6107e8565b6101ff61095b565b610142610c94565b610142610e4a565b61014260005481565b6101d47f000000000000000000000000000000000000000000000000000000000000000081565b6101d47f000000000000000000000000000000000000000000000000000000000000000081565b336001600160a01b037f00000000000000000000000000000000000000000000000000000000000000001614610363576040516282b42960e81b815260040160405180910390fd5b61036b610553565b8111156103be5760405162461bcd60e51b815260206004820152601c60248201527f5245515545535445445f414d4f554e545f554e415641494c41424c4500000000604482015260640160405180910390fd5b806000808282546103cf9190610f73565b909155505060405163a9059cbb60e01b81526001600160a01b037f000000000000000000000000000000000000000000000000000000000000000081166004830152602482018390527f0000000000000000000000000000000000000000000000000000000000000000169063a9059cbb906044016020604051808303816000875af1158015610463573d6000803e3d6000fd5b505050506040513d601f19601f820116820180604052508101906104879190610f86565b5060005460408051838152602081019290925230917f00000000000000000000000000000000000000000000000000000000000000006001600160a01b0316917ffee3482f4c7159a4b6099bc21aca69d11242a1b2401a63b7a850e5e2728effbe910160405180910390a350565b60007f000000000000000000000000000000000000000000000000000000000000000042116105245750600090565b61054e7f000000000000000000000000000000000000000000000000000000000000000042610fa8565b905090565b6040516370a0823160e01b815230600482015260009081906001600160a01b037f000000000000000000000000000000000000000000000000000000000000000016906370a0823190602401602060405180830381865afa1580156105bc573d6000803e3d6000fd5b505050506040513d601f19601f820116820180604052508101906105e09190610fbb565b90507f000000000000000000000000000000000000000000000000000000000000000042101561062d5761062881600054610619610e4a565b6106239190610fa8565b610f03565b61062f565b805b91505090565b336001600160a01b037f0000000000000000000000000000000000000000000000000000000000000000161461067d576040516282b42960e81b815260040160405180910390fd5b6040516370a0823160e01b81523060048201526000907f00000000000000000000000000000000000000000000000000000000000000006001600160a01b0316906370a0823190602401602060405180830381865afa1580156106e4573d6000803e3d6000fd5b505050506040513d601f19601f820116820180604052508101906107089190610fbb565b60405163a9059cbb60e01b81526001600160a01b038481166004830152602482018390529192507f00000000000000000000000000000000000000000000000000000000000000009091169063a9059cbb906044016020604051808303816000875af115801561077c573d6000803e3d6000fd5b505050506040513d601f19601f820116820180604052508101906107a09190610f86565b50816001600160a01b03167f06665c289cfc3970ec0fac47e2b1854518251a4a47cbb9dd13d3d9e1c5eaf418826040516107dc91815260200190565b60405180910390a25050565b6000306001600160a01b031663abc88bda6040518163ffffffff1660e01b8152600401602060405180830381865afa158015610828573d6000803e3d6000fd5b505050506040513d601f19601f8201168201806040525081019061084c9190610fbb565b82101561085b57506000919050565b7f00000000000000000000000000000000000000000000000000000000000000006001600160a01b03166349017138306001600160a01b031663abc88bda6040518163ffffffff1660e01b8152600401602060405180830381865afa1580156108c8573d6000803e3d6000fd5b505050506040513d601f19601f820116820180604052508101906108ec9190610fbb565b6108f69085610fa8565b6040518263ffffffff1660e01b815260040161091491815260200190565b602060405180830381865afa158015610931573d6000803e3d6000fd5b505050506040513d601f19601f820116820180604052508101906109559190610fbb565b92915050565b336001600160a01b037f000000000000000000000000000000000000000000000000000000000000000016146109a3576040516282b42960e81b815260040160405180910390fd5b600080546109af610e4a565b6109b99190610fa8565b905060006109c5610e4a565b6109ef907f0000000000000000000000000000000000000000000000000000000000000000610fa8565b6040516309202e2760e31b8152600481018290529091506000906001600160a01b037f00000000000000000000000000000000000000000000000000000000000000001690634901713890602401602060405180830381865afa158015610a5a573d6000803e3d6000fd5b505050506040513d601f19601f82011682018060405250810190610a7e9190610fbb565b9050600081610a8d8486610f73565b610a979190610fa8565b7f000000000000000000000000000000000000000000000000000000000000000060005560405163a9059cbb60e01b81526001600160a01b037f000000000000000000000000000000000000000000000000000000000000000081166004830152602482018590529192507f00000000000000000000000000000000000000000000000000000000000000009091169063a9059cbb906044016020604051808303816000875af1158015610b4f573d6000803e3d6000fd5b505050506040513d601f19601f82011682018060405250810190610b739190610f86565b5060405163a9059cbb60e01b81526001600160a01b037f000000000000000000000000000000000000000000000000000000000000000081166004830152602482018390527f0000000000000000000000000000000000000000000000000000000000000000169063a9059cbb906044016020604051808303816000875af1158015610c03573d6000803e3d6000fd5b505050506040513d601f19601f82011682018060405250810190610c279190610f86565b50604080518281526020810184905230917f00000000000000000000000000000000000000000000000000000000000000006001600160a01b0316917fc1a5e7c0c64d24c299a6c310706bec27812559ad9b4fcdc6dade3a69ed05edb1910160405180910390a350505050565b6040516370a0823160e01b815230600482015260009081906001600160a01b037f000000000000000000000000000000000000000000000000000000000000000016906370a0823190602401602060405180830381865afa158015610cfd573d6000803e3d6000fd5b505050506040513d601f19601f82011682018060405250810190610d219190610fbb565b90507f00000000000000000000000000000000000000000000000000000000000000004210610d4f57919050565b60008054610d5b610e4a565b610d659190610fa8565b90506000610d71610e4a565b610d9b907f0000000000000000000000000000000000000000000000000000000000000000610fa8565b6040516309202e2760e31b8152600481018290529091506000906001600160a01b037f00000000000000000000000000000000000000000000000000000000000000001690634901713890602401602060405180830381865afa158015610e06573d6000803e3d6000fd5b505050506040513d601f19601f82011682018060405250810190610e2a9190610fbb565b905080610e378385610f73565b610e419190610fa8565b94505050505090565b60007f00000000000000000000000000000000000000000000000000000000000000004211610e795750600090565b6000610eac610e866104f5565b7f0000000000000000000000000000000000000000000000000000000000000000610f03565b90507f0000000000000000000000000000000000000000000000000000000000000000610ef9827f0000000000000000000000000000000000000000000000000000000000000000610fd4565b61062f9190610feb565b6000818310610f125781610f14565b825b9392505050565b600060208284031215610f2d57600080fd5b5035919050565b600060208284031215610f4657600080fd5b81356001600160a01b0381168114610f1457600080fd5b634e487b7160e01b600052601160045260246000fd5b8082018082111561095557610955610f5d565b600060208284031215610f9857600080fd5b81518015158114610f1457600080fd5b8181038181111561095557610955610f5d565b600060208284031215610fcd57600080fd5b5051919050565b808202811582820484141761095557610955610f5d565b60008261100857634e487b7160e01b600052601260045260246000fd5b50049056fea26469706673582212209141e700113408c2ba001d932de90173dec2444c7fc8f3d10d4013a52563fb2164736f6c634300081a0033","linkReferences":{}},"methodIdentifiers":{"availableEarlyTokens()":"a289c11e","availableTokens()":"69bb4dc2","claw(address)":"7102ba62","earlyExitPenalty(uint256)":"79c066c8","earlyReleaseTokens()":"9c2dc6fb","elapsedTime()":"51453f9d","endTime()":"3197cbb6","grantAmount()":"52fdb2bb","isGrantFullyUnlocked()":"244e490f","lockupTime()":"0d05d69d","manager()":"481c6a75","recipient()":"66d003ac","releaseTokens(uint256)":"4b0babdd","releasedTokens()":"bef39963","stakingContract()":"ee99205c","startTime()":"78e97925","token()":"fc0c546a","unlockedTokens()":"abc88bda"},"id":57}